{
  "contractName": "viewPure",
  "abi": [
    {
      "constant": true,
      "inputs": [],
      "name": "getSomething",
      "outputs": [
        {
          "name": "",
          "type": "uint256"
        }
      ],
      "payable": false,
      "stateMutability": "view",
      "type": "function"
    },
    {
      "constant": true,
      "inputs": [],
      "name": "doSomething",
      "outputs": [
        {
          "name": "",
          "type": "uint256"
        }
      ],
      "payable": false,
      "stateMutability": "pure",
      "type": "function"
    }
  ],
  "bytecode": "0x6080604052600a60005534801561001557600080fd5b5060dc806100246000396000f3006080604052600436106049576000357c0100000000000000000000000000000000000000000000000000000000900463ffffffff16806301ec3b6c14604e57806382692679146076575b600080fd5b348015605957600080fd5b506060609e565b6040518082815260200191505060405180910390f35b348015608157600080fd5b50608860ab565b6040518082815260200191505060405180910390f35b6000606460008190555090565b6000905600a165627a7a723058206221e175d95e3190b7ae06fdbc1e665972223a23aed28772117f89602d7a45420029",
  "source": "pragma solidity ^0.4.22;\n\n//Vulnerable Code : A getter function is changing the state of the contract\n\n/*\ncontract viewPure{\n  uint some_value;\n  function getsomething() public returns (uint){\n    some_value = 10;\n    return some_value;\n  }\n\n}\n\n*/\n\n//The view and pure functions control the ability of a function to change the state of the contract\n/* NOT ALLOWED WITHIN A FUNCTION\n*Setting the value in storage variable\n*emitting the events from a function \n*creating a new contract instance\n*sending ethers\n*using low level calls or EVM assembly\n*using selfdestruct\n*calling other funcitons that perform any of the above actions\n*/\n\n/*WRITTING CODE WITH VIEW AND PURE */\n//Allowed to read the storage but cannot modify it\ncontract viewPure{\nuint val = 10;\nfunction getSomething() public view returns (uint){\n  //no issues\n  //return val;\n  \n  //not allowed\n  val = 100;\n}\n// Not allowed to read or modify the state of the contract\nfunction doSomething() public pure returns (uint){\n  //not allowed\n  //return val;\n}\n\n}\n",
  "sourcePath": "/Users/jarvis/Desktop/CODE/Decentralized Applications/Learning/contracts/view_pure.sol",
  "compiler": {
    "name": "solc",
    "version": "0.4.24+commit.e67f0147.Emscripten.clang"
  },
  "schemaVersion": "2.0.1",
  "updatedAt": "2018-07-19T18:57:21.687Z"
}